{
  "_format": "hh-sol-artifact-1",
  "contractName": "ERC20TokenFactory",
  "sourceName": "contracts/ERC20Factory.sol",
  "abi": [
    {
      "anonymous": false,
      "inputs": [
        {
          "indexed": true,
          "internalType": "address",
          "name": "tokenAddress",
          "type": "address"
        },
        {
          "indexed": true,
          "internalType": "address",
          "name": "creator",
          "type": "address"
        }
      ],
      "name": "TokenCreated",
      "type": "event"
    },
    {
      "inputs": [
        {
          "internalType": "address",
          "name": "_tokenAddress",
          "type": "address"
        },
        {
          "internalType": "uint256",
          "name": "_amount",
          "type": "uint256"
        }
      ],
      "name": "burn",
      "outputs": [],
      "stateMutability": "nonpayable",
      "type": "function"
    },
    {
      "inputs": [
        {
          "internalType": "string",
          "name": "_name",
          "type": "string"
        },
        {
          "internalType": "string",
          "name": "_symbol",
          "type": "string"
        },
        {
          "internalType": "uint256",
          "name": "_initialSupply",
          "type": "uint256"
        },
        {
          "internalType": "address",
          "name": "_owner",
          "type": "address"
        }
      ],
      "name": "createToken",
      "outputs": [
        {
          "internalType": "address",
          "name": "",
          "type": "address"
        }
      ],
      "stateMutability": "nonpayable",
      "type": "function"
    }
  ],
  "bytecode": "0x608060405234801561001057600080fd5b50612304806100206000396000f3fe60806040523480156200001157600080fd5b50600436106200003a5760003560e01c806334f359f9146200003f5780639dc29fac1462000075575b600080fd5b6200005d6004803603810190620000579190620004a8565b62000095565b6040516200006c919062000569565b60405180910390f35b6200009360048036038101906200008d919062000586565b6200013f565b005b60008085858585604051620000aa9062000284565b620000b9949392919062000667565b604051809103906000f080158015620000d6573d6000803e3d6000fd5b5090508273ffffffffffffffffffffffffffffffffffffffff168173ffffffffffffffffffffffffffffffffffffffff167fd5f9bdf12adf29dab0248c349842c3822d53ae2bb4f36352f301630d018c813960405160405180910390a380915050949350505050565b600082905060008173ffffffffffffffffffffffffffffffffffffffff166370a08231336040518263ffffffff1660e01b815260040162000181919062000569565b602060405180830381865afa1580156200019f573d6000803e3d6000fd5b505050506040513d601f19601f82011682018060405250810190620001c59190620006d9565b9050828110156200020d576040517f08c379a000000000000000000000000000000000000000000000000000000000815260040162000204906200075b565b60405180910390fd5b8173ffffffffffffffffffffffffffffffffffffffff16639dc29fac33856040518363ffffffff1660e01b81526004016200024a9291906200077d565b600060405180830381600087803b1580156200026557600080fd5b505af11580156200027a573d6000803e3d6000fd5b5050505050505050565b611b2480620007ab83390190565b6000604051905090565b600080fd5b600080fd5b600080fd5b600080fd5b6000601f19601f8301169050919050565b7f4e487b7100000000000000000000000000000000000000000000000000000000600052604160045260246000fd5b620002fb82620002b0565b810181811067ffffffffffffffff821117156200031d576200031c620002c1565b5b80604052505050565b60006200033262000292565b9050620003408282620002f0565b919050565b600067ffffffffffffffff821115620003635762000362620002c1565b5b6200036e82620002b0565b9050602081019050919050565b82818337600083830152505050565b6000620003a16200039b8462000345565b62000326565b905082815260208101848484011115620003c057620003bf620002ab565b5b620003cd8482856200037b565b509392505050565b600082601f830112620003ed57620003ec620002a6565b5b8135620003ff8482602086016200038a565b91505092915050565b6000819050919050565b6200041d8162000408565b81146200042957600080fd5b50565b6000813590506200043d8162000412565b92915050565b600073ffffffffffffffffffffffffffffffffffffffff82169050919050565b6000620004708262000443565b9050919050565b620004828162000463565b81146200048e57600080fd5b50565b600081359050620004a28162000477565b92915050565b60008060008060808587031215620004c557620004c46200029c565b5b600085013567ffffffffffffffff811115620004e657620004e5620002a1565b5b620004f487828801620003d5565b945050602085013567ffffffffffffffff811115620005185762000517620002a1565b5b6200052687828801620003d5565b935050604062000539878288016200042c565b92505060606200054c8782880162000491565b91505092959194509250565b620005638162000463565b82525050565b600060208201905062000580600083018462000558565b92915050565b60008060408385031215620005a0576200059f6200029c565b5b6000620005b08582860162000491565b9250506020620005c3858286016200042c565b9150509250929050565b600081519050919050565b600082825260208201905092915050565b60005b8381101562000609578082015181840152602081019050620005ec565b60008484015250505050565b60006200062282620005cd565b6200062e8185620005d8565b935062000640818560208601620005e9565b6200064b81620002b0565b840191505092915050565b620006618162000408565b82525050565b6000608082019050818103600083015262000683818762000615565b9050818103602083015262000699818662000615565b9050620006aa604083018562000656565b620006b9606083018462000558565b95945050505050565b600081519050620006d38162000412565b92915050565b600060208284031215620006f257620006f16200029c565b5b60006200070284828501620006c2565b91505092915050565b7f496e73756666696369656e742062616c616e636520746f206275726e00000000600082015250565b600062000743601c83620005d8565b915062000750826200070b565b602082019050919050565b60006020820190508181036000830152620007768162000734565b9050919050565b600060408201905062000794600083018562000558565b620007a3602083018462000656565b939250505056fe60806040523480156200001157600080fd5b5060405162001b2438038062001b248339818101604052810190620000379190620005ac565b838381600390816200004a91906200089d565b5080600490816200005c91906200089d565b505050620000718183620000bc60201b60201c565b80600560006101000a81548173ffffffffffffffffffffffffffffffffffffffff021916908373ffffffffffffffffffffffffffffffffffffffff1602179055505050505062000a87565b600073ffffffffffffffffffffffffffffffffffffffff168273ffffffffffffffffffffffffffffffffffffffff1603620001315760006040517fec442f0500000000000000000000000000000000000000000000000000000000815260040162000128919062000995565b60405180910390fd5b62000145600083836200014960201b60201c565b5050565b600073ffffffffffffffffffffffffffffffffffffffff168373ffffffffffffffffffffffffffffffffffffffff16036200019f578060026000828254620001929190620009e1565b9250508190555062000275565b60008060008573ffffffffffffffffffffffffffffffffffffffff1673ffffffffffffffffffffffffffffffffffffffff168152602001908152602001600020549050818110156200022e578381836040517fe450d38c000000000000000000000000000000000000000000000000000000008152600401620002259392919062000a2d565b60405180910390fd5b8181036000808673ffffffffffffffffffffffffffffffffffffffff1673ffffffffffffffffffffffffffffffffffffffff16815260200190815260200160002081905550505b600073ffffffffffffffffffffffffffffffffffffffff168273ffffffffffffffffffffffffffffffffffffffff1603620002c057806002600082825403925050819055506200030d565b806000808473ffffffffffffffffffffffffffffffffffffffff1673ffffffffffffffffffffffffffffffffffffffff168152602001908152602001600020600082825401925050819055505b8173ffffffffffffffffffffffffffffffffffffffff168373ffffffffffffffffffffffffffffffffffffffff167fddf252ad1be2c89b69c2b068fc378daa952ba7f163c4a11628f55a4df523b3ef836040516200036c919062000a6a565b60405180910390a3505050565b6000604051905090565b600080fd5b600080fd5b600080fd5b600080fd5b6000601f19601f8301169050919050565b7f4e487b7100000000000000000000000000000000000000000000000000000000600052604160045260246000fd5b620003e28262000397565b810181811067ffffffffffffffff82111715620004045762000403620003a8565b5b80604052505050565b60006200041962000379565b9050620004278282620003d7565b919050565b600067ffffffffffffffff8211156200044a5762000449620003a8565b5b620004558262000397565b9050602081019050919050565b60005b838110156200048257808201518184015260208101905062000465565b60008484015250505050565b6000620004a56200049f846200042c565b6200040d565b905082815260208101848484011115620004c457620004c362000392565b5b620004d184828562000462565b509392505050565b600082601f830112620004f157620004f06200038d565b5b8151620005038482602086016200048e565b91505092915050565b6000819050919050565b62000521816200050c565b81146200052d57600080fd5b50565b600081519050620005418162000516565b92915050565b600073ffffffffffffffffffffffffffffffffffffffff82169050919050565b6000620005748262000547565b9050919050565b620005868162000567565b81146200059257600080fd5b50565b600081519050620005a6816200057b565b92915050565b60008060008060808587031215620005c957620005c862000383565b5b600085015167ffffffffffffffff811115620005ea57620005e962000388565b5b620005f887828801620004d9565b945050602085015167ffffffffffffffff8111156200061c576200061b62000388565b5b6200062a87828801620004d9565b93505060406200063d8782880162000530565b9250506060620006508782880162000595565b91505092959194509250565b600081519050919050565b7f4e487b7100000000000000000000000000000000000000000000000000000000600052602260045260246000fd5b60006002820490506001821680620006af57607f821691505b602082108103620006c557620006c462000667565b5b50919050565b60008190508160005260206000209050919050565b60006020601f8301049050919050565b600082821b905092915050565b6000600883026200072f7fffffffffffffffffffffffffffffffffffffffffffffffffffffffffffffffff82620006f0565b6200073b8683620006f0565b95508019841693508086168417925050509392505050565b6000819050919050565b60006200077e6200077862000772846200050c565b62000753565b6200050c565b9050919050565b6000819050919050565b6200079a836200075d565b620007b2620007a98262000785565b848454620006fd565b825550505050565b600090565b620007c9620007ba565b620007d68184846200078f565b505050565b5b81811015620007fe57620007f2600082620007bf565b600181019050620007dc565b5050565b601f8211156200084d576200081781620006cb565b6200082284620006e0565b8101602085101562000832578190505b6200084a6200084185620006e0565b830182620007db565b50505b505050565b600082821c905092915050565b6000620008726000198460080262000852565b1980831691505092915050565b60006200088d83836200085f565b9150826002028217905092915050565b620008a8826200065c565b67ffffffffffffffff811115620008c457620008c3620003a8565b5b620008d0825462000696565b620008dd82828562000802565b600060209050601f83116001811462000915576000841562000900578287015190505b6200090c85826200087f565b8655506200097c565b601f1984166200092586620006cb565b60005b828110156200094f5784890151825560018201915060208501945060208101905062000928565b868310156200096f57848901516200096b601f8916826200085f565b8355505b6001600288020188555050505b505050505050565b6200098f8162000567565b82525050565b6000602082019050620009ac600083018462000984565b92915050565b7f4e487b7100000000000000000000000000000000000000000000000000000000600052601160045260246000fd5b6000620009ee826200050c565b9150620009fb836200050c565b925082820190508082111562000a165762000a15620009b2565b5b92915050565b62000a27816200050c565b82525050565b600060608201905062000a44600083018662000984565b62000a53602083018562000a1c565b62000a62604083018462000a1c565b949350505050565b600060208201905062000a81600083018462000a1c565b92915050565b61108d8062000a976000396000f3fe608060405234801561001057600080fd5b50600436106100a95760003560e01c806370a082311161007157806370a08231146101685780638da5cb5b1461019857806395d89b41146101b65780639dc29fac146101d4578063a9059cbb146101f0578063dd62ed3e14610220576100a9565b806306fdde03146100ae578063095ea7b3146100cc57806318160ddd146100fc57806323b872dd1461011a578063313ce5671461014a575b600080fd5b6100b6610250565b6040516100c39190610c75565b60405180910390f35b6100e660048036038101906100e19190610d30565b6102e2565b6040516100f39190610d8b565b60405180910390f35b610104610305565b6040516101119190610db5565b60405180910390f35b610134600480360381019061012f9190610dd0565b61030f565b6040516101419190610d8b565b60405180910390f35b61015261033e565b60405161015f9190610e3f565b60405180910390f35b610182600480360381019061017d9190610e5a565b610347565b60405161018f9190610db5565b60405180910390f35b6101a061038f565b6040516101ad9190610e96565b60405180910390f35b6101be6103b5565b6040516101cb9190610c75565b60405180910390f35b6101ee60048036038101906101e99190610d30565b610447565b005b61020a60048036038101906102059190610d30565b61051b565b6040516102179190610d8b565b60405180910390f35b61023a60048036038101906102359190610eb1565b61053e565b6040516102479190610db5565b60405180910390f35b60606003805461025f90610f20565b80601f016020809104026020016040519081016040528092919081815260200182805461028b90610f20565b80156102d85780601f106102ad576101008083540402835291602001916102d8565b820191906000526020600020905b8154815290600101906020018083116102bb57829003601f168201915b5050505050905090565b6000806102ed6105c5565b90506102fa8185856105cd565b600191505092915050565b6000600254905090565b60008061031a6105c5565b90506103278582856105df565b610332858585610673565b60019150509392505050565b60006012905090565b60008060008373ffffffffffffffffffffffffffffffffffffffff1673ffffffffffffffffffffffffffffffffffffffff168152602001908152602001600020549050919050565b600560009054906101000a900473ffffffffffffffffffffffffffffffffffffffff1681565b6060600480546103c490610f20565b80601f01602080910402602001604051908101604052809291908181526020018280546103f090610f20565b801561043d5780601f106104125761010080835404028352916020019161043d565b820191906000526020600020905b81548152906001019060200180831161042057829003601f168201915b5050505050905090565b8173ffffffffffffffffffffffffffffffffffffffff163373ffffffffffffffffffffffffffffffffffffffff1614806104ce5750600560009054906101000a900473ffffffffffffffffffffffffffffffffffffffff1673ffffffffffffffffffffffffffffffffffffffff163373ffffffffffffffffffffffffffffffffffffffff16145b61050d576040517f08c379a000000000000000000000000000000000000000000000000000000000815260040161050490610f9d565b60405180910390fd5b6105178282610767565b5050565b6000806105266105c5565b9050610533818585610673565b600191505092915050565b6000600160008473ffffffffffffffffffffffffffffffffffffffff1673ffffffffffffffffffffffffffffffffffffffff16815260200190815260200160002060008373ffffffffffffffffffffffffffffffffffffffff1673ffffffffffffffffffffffffffffffffffffffff16815260200190815260200160002054905092915050565b600033905090565b6105da83838360016107e9565b505050565b60006105eb848461053e565b90507fffffffffffffffffffffffffffffffffffffffffffffffffffffffffffffffff811461066d578181101561065d578281836040517ffb8f41b200000000000000000000000000000000000000000000000000000000815260040161065493929190610fbd565b60405180910390fd5b61066c848484840360006107e9565b5b50505050565b600073ffffffffffffffffffffffffffffffffffffffff168373ffffffffffffffffffffffffffffffffffffffff16036106e55760006040517f96c6fd1e0000000000000000000000000000000000000000000000000000000081526004016106dc9190610e96565b60405180910390fd5b600073ffffffffffffffffffffffffffffffffffffffff168273ffffffffffffffffffffffffffffffffffffffff16036107575760006040517fec442f0500000000000000000000000000000000000000000000000000000000815260040161074e9190610e96565b60405180910390fd5b6107628383836109c0565b505050565b600073ffffffffffffffffffffffffffffffffffffffff168273ffffffffffffffffffffffffffffffffffffffff16036107d95760006040517f96c6fd1e0000000000000000000000000000000000000000000000000000000081526004016107d09190610e96565b60405180910390fd5b6107e5826000836109c0565b5050565b600073ffffffffffffffffffffffffffffffffffffffff168473ffffffffffffffffffffffffffffffffffffffff160361085b5760006040517fe602df050000000000000000000000000000000000000000000000000000000081526004016108529190610e96565b60405180910390fd5b600073ffffffffffffffffffffffffffffffffffffffff168373ffffffffffffffffffffffffffffffffffffffff16036108cd5760006040517f94280d620000000000000000000000000000000000000000000000000000000081526004016108c49190610e96565b60405180910390fd5b81600160008673ffffffffffffffffffffffffffffffffffffffff1673ffffffffffffffffffffffffffffffffffffffff16815260200190815260200160002060008573ffffffffffffffffffffffffffffffffffffffff1673ffffffffffffffffffffffffffffffffffffffff1681526020019081526020016000208190555080156109ba578273ffffffffffffffffffffffffffffffffffffffff168473ffffffffffffffffffffffffffffffffffffffff167f8c5be1e5ebec7d5bd14f71427d1e84f3dd0314c0f7b2291e5b200ac8c7c3b925846040516109b19190610db5565b60405180910390a35b50505050565b600073ffffffffffffffffffffffffffffffffffffffff168373ffffffffffffffffffffffffffffffffffffffff1603610a12578060026000828254610a069190611023565b92505081905550610ae5565b60008060008573ffffffffffffffffffffffffffffffffffffffff1673ffffffffffffffffffffffffffffffffffffffff16815260200190815260200160002054905081811015610a9e578381836040517fe450d38c000000000000000000000000000000000000000000000000000000008152600401610a9593929190610fbd565b60405180910390fd5b8181036000808673ffffffffffffffffffffffffffffffffffffffff1673ffffffffffffffffffffffffffffffffffffffff16815260200190815260200160002081905550505b600073ffffffffffffffffffffffffffffffffffffffff168273ffffffffffffffffffffffffffffffffffffffff1603610b2e5780600260008282540392505081905550610b7b565b806000808473ffffffffffffffffffffffffffffffffffffffff1673ffffffffffffffffffffffffffffffffffffffff168152602001908152602001600020600082825401925050819055505b8173ffffffffffffffffffffffffffffffffffffffff168373ffffffffffffffffffffffffffffffffffffffff167fddf252ad1be2c89b69c2b068fc378daa952ba7f163c4a11628f55a4df523b3ef83604051610bd89190610db5565b60405180910390a3505050565b600081519050919050565b600082825260208201905092915050565b60005b83811015610c1f578082015181840152602081019050610c04565b60008484015250505050565b6000601f19601f8301169050919050565b6000610c4782610be5565b610c518185610bf0565b9350610c61818560208601610c01565b610c6a81610c2b565b840191505092915050565b60006020820190508181036000830152610c8f8184610c3c565b905092915050565b600080fd5b600073ffffffffffffffffffffffffffffffffffffffff82169050919050565b6000610cc782610c9c565b9050919050565b610cd781610cbc565b8114610ce257600080fd5b50565b600081359050610cf481610cce565b92915050565b6000819050919050565b610d0d81610cfa565b8114610d1857600080fd5b50565b600081359050610d2a81610d04565b92915050565b60008060408385031215610d4757610d46610c97565b5b6000610d5585828601610ce5565b9250506020610d6685828601610d1b565b9150509250929050565b60008115159050919050565b610d8581610d70565b82525050565b6000602082019050610da06000830184610d7c565b92915050565b610daf81610cfa565b82525050565b6000602082019050610dca6000830184610da6565b92915050565b600080600060608486031215610de957610de8610c97565b5b6000610df786828701610ce5565b9350506020610e0886828701610ce5565b9250506040610e1986828701610d1b565b9150509250925092565b600060ff82169050919050565b610e3981610e23565b82525050565b6000602082019050610e546000830184610e30565b92915050565b600060208284031215610e7057610e6f610c97565b5b6000610e7e84828501610ce5565b91505092915050565b610e9081610cbc565b82525050565b6000602082019050610eab6000830184610e87565b92915050565b60008060408385031215610ec857610ec7610c97565b5b6000610ed685828601610ce5565b9250506020610ee785828601610ce5565b9150509250929050565b7f4e487b7100000000000000000000000000000000000000000000000000000000600052602260045260246000fd5b60006002820490506001821680610f3857607f821691505b602082108103610f4b57610f4a610ef1565b5b50919050565b7f4e6f7420617574686f72697a656420746f206275726e00000000000000000000600082015250565b6000610f87601683610bf0565b9150610f9282610f51565b602082019050919050565b60006020820190508181036000830152610fb681610f7a565b9050919050565b6000606082019050610fd26000830186610e87565b610fdf6020830185610da6565b610fec6040830184610da6565b949350505050565b7f4e487b7100000000000000000000000000000000000000000000000000000000600052601160045260246000fd5b600061102e82610cfa565b915061103983610cfa565b925082820190508082111561105157611050610ff4565b5b9291505056fea26469706673582212209b52ae65ef8eb2f930a764ac938e63ca40aef39dfa52ebdfab42982f56b494cd64736f6c63430008140033a2646970667358221220fde8ba6a4e9563c6fefbf356770f308d14763692133225d7d0841c11ef526a2664736f6c63430008140033",
  "linkReferences": {},
  "deployedLinkReferences": {}
}